{
  "_format": "hh-sol-artifact-1",
  "contractName": "Counter",
  "sourceName": "contracts/Counter.sol",
  "abi": [
    {
      "inputs": [],
      "name": "count",
      "outputs": [
        {
          "internalType": "uint256",
          "name": "",
          "type": "uint256"
        }
      ],
      "stateMutability": "view",
      "type": "function"
    },
    {
      "inputs": [],
      "name": "increment",
      "outputs": [],
      "stateMutability": "nonpayable",
      "type": "function"
    },
    {
      "inputs": [],
      "name": "reset",
      "outputs": [],
      "stateMutability": "nonpayable",
      "type": "function"
    }
  ],
  "bytecode": "0x6080604052348015600f57600080fd5b5061016f8061001f6000396000f3fe608060405234801561001057600080fd5b50600436106100415760003560e01c806306661abd14610046578063d09de08a14610064578063d826f88f1461006e575b600080fd5b61004e610078565b60405161005b91906100bb565b60405180910390f35b61006c61007e565b005b610076610099565b005b60005481565b60016000808282546100909190610105565b92505081905550565b60008081905550565b6000819050919050565b6100b5816100a2565b82525050565b60006020820190506100d060008301846100ac565b92915050565b7f4e487b7100000000000000000000000000000000000000000000000000000000600052601160045260246000fd5b6000610110826100a2565b915061011b836100a2565b9250828201905080821115610133576101326100d6565b5b9291505056fea2646970667358221220046547f39911d1b2dc7a5c867b294f3b6a6353fe840e9e57044c00a36936f3cb64736f6c634300081c0033",
  "linkReferences": {},
  "deployedLinkReferences": {}
}